{
  "_format": "hh-sol-artifact-1",
  "contractName": "DiplomaNFT",
  "sourceName": "contracts/DiplomaNFT.sol",
  "abi": [
    {
      "inputs": [
        {
          "internalType": "address",
          "name": "initialOwner",
          "type": "address"
        }
      ],
      "stateMutability": "nonpayable",
      "type": "constructor"
    },
    {
      "inputs": [
        {
          "internalType": "address",
          "name": "sender",
          "type": "address"
        },
        {
          "internalType": "uint256",
          "name": "tokenId",
          "type": "uint256"
        },
        {
          "internalType": "address",
          "name": "owner",
          "type": "address"
        }
      ],
      "name": "ERC721IncorrectOwner",
      "type": "error"
    },
    {
      "inputs": [
        {
          "internalType": "address",
          "name": "operator",
          "type": "address"
        },
        {
          "internalType": "uint256",
          "name": "tokenId",
          "type": "uint256"
        }
      ],
      "name": "ERC721InsufficientApproval",
      "type": "error"
    },
    {
      "inputs": [
        {
          "internalType": "address",
          "name": "approver",
          "type": "address"
        }
      ],
      "name": "ERC721InvalidApprover",
      "type": "error"
    },
    {
      "inputs": [
        {
          "internalType": "address",
          "name": "operator",
          "type": "address"
        }
      ],
      "name": "ERC721InvalidOperator",
      "type": "error"
    },
    {
      "inputs": [
        {
          "internalType": "address",
          "name": "owner",
          "type": "address"
        }
      ],
      "name": "ERC721InvalidOwner",
      "type": "error"
    },
    {
      "inputs": [
        {
          "internalType": "address",
          "name": "receiver",
          "type": "address"
        }
      ],
      "name": "ERC721InvalidReceiver",
      "type": "error"
    },
    {
      "inputs": [
        {
          "internalType": "address",
          "name": "sender",
          "type": "address"
        }
      ],
      "name": "ERC721InvalidSender",
      "type": "error"
    },
    {
      "inputs": [
        {
          "internalType": "uint256",
          "name": "tokenId",
          "type": "uint256"
        }
      ],
      "name": "ERC721NonexistentToken",
      "type": "error"
    },
    {
      "inputs": [
        {
          "internalType": "address",
          "name": "owner",
          "type": "address"
        }
      ],
      "name": "OwnableInvalidOwner",
      "type": "error"
    },
    {
      "inputs": [
        {
          "internalType": "address",
          "name": "account",
          "type": "address"
        }
      ],
      "name": "OwnableUnauthorizedAccount",
      "type": "error"
    },
    {
      "anonymous": false,
      "inputs": [
        {
          "indexed": true,
          "internalType": "address",
          "name": "owner",
          "type": "address"
        },
        {
          "indexed": true,
          "internalType": "address",
          "name": "approved",
          "type": "address"
        },
        {
          "indexed": true,
          "internalType": "uint256",
          "name": "tokenId",
          "type": "uint256"
        }
      ],
      "name": "Approval",
      "type": "event"
    },
    {
      "anonymous": false,
      "inputs": [
        {
          "indexed": true,
          "internalType": "address",
          "name": "owner",
          "type": "address"
        },
        {
          "indexed": true,
          "internalType": "address",
          "name": "operator",
          "type": "address"
        },
        {
          "indexed": false,
          "internalType": "bool",
          "name": "approved",
          "type": "bool"
        }
      ],
      "name": "ApprovalForAll",
      "type": "event"
    },
    {
      "anonymous": false,
      "inputs": [
        {
          "indexed": false,
          "internalType": "uint256",
          "name": "_fromTokenId",
          "type": "uint256"
        },
        {
          "indexed": false,
          "internalType": "uint256",
          "name": "_toTokenId",
          "type": "uint256"
        }
      ],
      "name": "BatchMetadataUpdate",
      "type": "event"
    },
    {
      "anonymous": false,
      "inputs": [
        {
          "indexed": false,
          "internalType": "uint256",
          "name": "_tokenId",
          "type": "uint256"
        }
      ],
      "name": "MetadataUpdate",
      "type": "event"
    },
    {
      "anonymous": false,
      "inputs": [
        {
          "indexed": true,
          "internalType": "address",
          "name": "previousOwner",
          "type": "address"
        },
        {
          "indexed": true,
          "internalType": "address",
          "name": "newOwner",
          "type": "address"
        }
      ],
      "name": "OwnershipTransferred",
      "type": "event"
    },
    {
      "anonymous": false,
      "inputs": [
        {
          "indexed": true,
          "internalType": "address",
          "name": "from",
          "type": "address"
        },
        {
          "indexed": true,
          "internalType": "address",
          "name": "to",
          "type": "address"
        },
        {
          "indexed": true,
          "internalType": "uint256",
          "name": "tokenId",
          "type": "uint256"
        }
      ],
      "name": "Transfer",
      "type": "event"
    },
    {
      "inputs": [
        {
          "internalType": "address",
          "name": "to",
          "type": "address"
        },
        {
          "internalType": "uint256",
          "name": "tokenId",
          "type": "uint256"
        }
      ],
      "name": "approve",
      "outputs": [],
      "stateMutability": "nonpayable",
      "type": "function"
    },
    {
      "inputs": [
        {
          "internalType": "address",
          "name": "issuer",
          "type": "address"
        }
      ],
      "name": "approveIssuer",
      "outputs": [],
      "stateMutability": "nonpayable",
      "type": "function"
    },
    {
      "inputs": [
        {
          "internalType": "address",
          "name": "",
          "type": "address"
        }
      ],
      "name": "approvedIssuers",
      "outputs": [
        {
          "internalType": "bool",
          "name": "",
          "type": "bool"
        }
      ],
      "stateMutability": "view",
      "type": "function"
    },
    {
      "inputs": [
        {
          "internalType": "address",
          "name": "owner",
          "type": "address"
        }
      ],
      "name": "balanceOf",
      "outputs": [
        {
          "internalType": "uint256",
          "name": "",
          "type": "uint256"
        }
      ],
      "stateMutability": "view",
      "type": "function"
    },
    {
      "inputs": [
        {
          "internalType": "uint256",
          "name": "tokenId",
          "type": "uint256"
        }
      ],
      "name": "getApproved",
      "outputs": [
        {
          "internalType": "address",
          "name": "",
          "type": "address"
        }
      ],
      "stateMutability": "view",
      "type": "function"
    },
    {
      "inputs": [
        {
          "internalType": "address",
          "name": "owner",
          "type": "address"
        },
        {
          "internalType": "address",
          "name": "operator",
          "type": "address"
        }
      ],
      "name": "isApprovedForAll",
      "outputs": [
        {
          "internalType": "bool",
          "name": "",
          "type": "bool"
        }
      ],
      "stateMutability": "view",
      "type": "function"
    },
    {
      "inputs": [
        {
          "internalType": "address",
          "name": "student",
          "type": "address"
        },
        {
          "internalType": "string",
          "name": "tokenURI",
          "type": "string"
        }
      ],
      "name": "issueDiploma",
      "outputs": [],
      "stateMutability": "nonpayable",
      "type": "function"
    },
    {
      "inputs": [],
      "name": "name",
      "outputs": [
        {
          "internalType": "string",
          "name": "",
          "type": "string"
        }
      ],
      "stateMutability": "view",
      "type": "function"
    },
    {
      "inputs": [],
      "name": "owner",
      "outputs": [
        {
          "internalType": "address",
          "name": "",
          "type": "address"
        }
      ],
      "stateMutability": "view",
      "type": "function"
    },
    {
      "inputs": [
        {
          "internalType": "uint256",
          "name": "tokenId",
          "type": "uint256"
        }
      ],
      "name": "ownerOf",
      "outputs": [
        {
          "internalType": "address",
          "name": "",
          "type": "address"
        }
      ],
      "stateMutability": "view",
      "type": "function"
    },
    {
      "inputs": [],
      "name": "renounceOwnership",
      "outputs": [],
      "stateMutability": "nonpayable",
      "type": "function"
    },
    {
      "inputs": [
        {
          "internalType": "address",
          "name": "issuer",
          "type": "address"
        }
      ],
      "name": "revokeIssuer",
      "outputs": [],
      "stateMutability": "nonpayable",
      "type": "function"
    },
    {
      "inputs": [
        {
          "internalType": "address",
          "name": "from",
          "type": "address"
        },
        {
          "internalType": "address",
          "name": "to",
          "type": "address"
        },
        {
          "internalType": "uint256",
          "name": "tokenId",
          "type": "uint256"
        }
      ],
      "name": "safeTransferFrom",
      "outputs": [],
      "stateMutability": "nonpayable",
      "type": "function"
    },
    {
      "inputs": [
        {
          "internalType": "address",
          "name": "from",
          "type": "address"
        },
        {
          "internalType": "address",
          "name": "to",
          "type": "address"
        },
        {
          "internalType": "uint256",
          "name": "tokenId",
          "type": "uint256"
        },
        {
          "internalType": "bytes",
          "name": "data",
          "type": "bytes"
        }
      ],
      "name": "safeTransferFrom",
      "outputs": [],
      "stateMutability": "nonpayable",
      "type": "function"
    },
    {
      "inputs": [
        {
          "internalType": "address",
          "name": "operator",
          "type": "address"
        },
        {
          "internalType": "bool",
          "name": "approved",
          "type": "bool"
        }
      ],
      "name": "setApprovalForAll",
      "outputs": [],
      "stateMutability": "nonpayable",
      "type": "function"
    },
    {
      "inputs": [
        {
          "internalType": "bytes4",
          "name": "interfaceId",
          "type": "bytes4"
        }
      ],
      "name": "supportsInterface",
      "outputs": [
        {
          "internalType": "bool",
          "name": "",
          "type": "bool"
        }
      ],
      "stateMutability": "view",
      "type": "function"
    },
    {
      "inputs": [],
      "name": "symbol",
      "outputs": [
        {
          "internalType": "string",
          "name": "",
          "type": "string"
        }
      ],
      "stateMutability": "view",
      "type": "function"
    },
    {
      "inputs": [],
      "name": "tokenCounter",
      "outputs": [
        {
          "internalType": "uint256",
          "name": "",
          "type": "uint256"
        }
      ],
      "stateMutability": "view",
      "type": "function"
    },
    {
      "inputs": [
        {
          "internalType": "uint256",
          "name": "tokenId",
          "type": "uint256"
        }
      ],
      "name": "tokenURI",
      "outputs": [
        {
          "internalType": "string",
          "name": "",
          "type": "string"
        }
      ],
      "stateMutability": "view",
      "type": "function"
    },
    {
      "inputs": [
        {
          "internalType": "address",
          "name": "from",
          "type": "address"
        },
        {
          "internalType": "address",
          "name": "to",
          "type": "address"
        },
        {
          "internalType": "uint256",
          "name": "tokenId",
          "type": "uint256"
        }
      ],
      "name": "transferFrom",
      "outputs": [],
      "stateMutability": "nonpayable",
      "type": "function"
    },
    {
      "inputs": [
        {
          "internalType": "address",
          "name": "newOwner",
          "type": "address"
        }
      ],
      "name": "transferOwnership",
      "outputs": [],
      "stateMutability": "nonpayable",
      "type": "function"
    }
  ],
  "bytecode": "0x60806040523480156200001157600080fd5b50604051620030c0380380620030c08339818101604052810190620000379190620002e8565b806040518060400160405280600a81526020017f4469706c6f6d614e4654000000000000000000000000000000000000000000008152506040518060400160405280600381526020017f44495000000000000000000000000000000000000000000000000000000000008152508160009081620000b5919062000594565b508060019081620000c7919062000594565b505050600073ffffffffffffffffffffffffffffffffffffffff168173ffffffffffffffffffffffffffffffffffffffff16036200013f5760006040517f1e4fbdf70000000000000000000000000000000000000000000000000000000081526004016200013691906200068c565b60405180910390fd5b6200015081620001b860201b60201c565b5060006008819055506001600960008373ffffffffffffffffffffffffffffffffffffffff1673ffffffffffffffffffffffffffffffffffffffff16815260200190815260200160002060006101000a81548160ff02191690831515021790555050620006a9565b6000600760009054906101000a900473ffffffffffffffffffffffffffffffffffffffff16905081600760006101000a81548173ffffffffffffffffffffffffffffffffffffffff021916908373ffffffffffffffffffffffffffffffffffffffff1602179055508173ffffffffffffffffffffffffffffffffffffffff168173ffffffffffffffffffffffffffffffffffffffff167f8be0079c531659141344cd1fd0a4f28419497f9722a3daafe3b4186f6b6457e060405160405180910390a35050565b600080fd5b600073ffffffffffffffffffffffffffffffffffffffff82169050919050565b6000620002b08262000283565b9050919050565b620002c281620002a3565b8114620002ce57600080fd5b50565b600081519050620002e281620002b7565b92915050565b6000602082840312156200030157620003006200027e565b5b60006200031184828501620002d1565b91505092915050565b600081519050919050565b7f4e487b7100000000000000000000000000000000000000000000000000000000600052604160045260246000fd5b7f4e487b7100000000000000000000000000000000000000000000000000000000600052602260045260246000fd5b600060028204905060018216806200039c57607f821691505b602082108103620003b257620003b162000354565b5b50919050565b60008190508160005260206000209050919050565b60006020601f8301049050919050565b600082821b905092915050565b6000600883026200041c7fffffffffffffffffffffffffffffffffffffffffffffffffffffffffffffffff82620003dd565b620004288683620003dd565b95508019841693508086168417925050509392505050565b6000819050919050565b6000819050919050565b6000620004756200046f620004698462000440565b6200044a565b62000440565b9050919050565b6000819050919050565b620004918362000454565b620004a9620004a0826200047c565b848454620003ea565b825550505050565b600090565b620004c0620004b1565b620004cd81848462000486565b505050565b5b81811015620004f557620004e9600082620004b6565b600181019050620004d3565b5050565b601f82111562000544576200050e81620003b8565b6200051984620003cd565b8101602085101562000529578190505b620005416200053885620003cd565b830182620004d2565b50505b505050565b600082821c905092915050565b6000620005696000198460080262000549565b1980831691505092915050565b600062000584838362000556565b9150826002028217905092915050565b6200059f826200031a565b67ffffffffffffffff811115620005bb57620005ba62000325565b5b620005c7825462000383565b620005d4828285620004f9565b600060209050601f8311600181146200060c5760008415620005f7578287015190505b62000603858262000576565b86555062000673565b601f1984166200061c86620003b8565b60005b8281101562000646578489015182556001820191506020850194506020810190506200061f565b8683101562000666578489015162000662601f89168262000556565b8355505b6001600288020188555050505b505050505050565b6200068681620002a3565b82525050565b6000602082019050620006a360008301846200067b565b92915050565b612a0780620006b96000396000f3fe608060405234801561001057600080fd5b50600436106101365760003560e01c806382deb86e116100b8578063c87b56dd1161007c578063c87b56dd14610323578063d082e38114610353578063e985e9c514610371578063f2fde38b146103a1578063fb87b9e7146103bd578063fdf85a31146103ed57610136565b806382deb86e146102935780638da5cb5b146102af57806395d89b41146102cd578063a22cb465146102eb578063b88d4fde1461030757610136565b806323b872dd116100ff57806323b872dd146101f157806342842e0e1461020d5780636352211e1461022957806370a0823114610259578063715018a61461028957610136565b80626296791461013b57806301ffc9a71461015757806306fdde0314610187578063081812fc146101a5578063095ea7b3146101d5575b600080fd5b61015560048036038101906101509190611d7b565b610409565b005b610171600480360381019061016c9190611e00565b61046c565b60405161017e9190611e48565b60405180910390f35b61018f6104cd565b60405161019c9190611ef3565b60405180910390f35b6101bf60048036038101906101ba9190611f4b565b61055f565b6040516101cc9190611f87565b60405180910390f35b6101ef60048036038101906101ea9190611fa2565b61057b565b005b61020b60048036038101906102069190611fe2565b610591565b005b61022760048036038101906102229190611fe2565b610693565b005b610243600480360381019061023e9190611f4b565b6106b3565b6040516102509190611f87565b60405180910390f35b610273600480360381019061026e9190611d7b565b6106c5565b6040516102809190612044565b60405180910390f35b61029161077f565b005b6102ad60048036038101906102a89190611d7b565b610793565b005b6102b76107f6565b6040516102c49190611f87565b60405180910390f35b6102d5610820565b6040516102e29190611ef3565b60405180910390f35b6103056004803603810190610300919061208b565b6108b2565b005b610321600480360381019061031c9190612200565b6108c8565b005b61033d60048036038101906103389190611f4b565b6108ed565b60405161034a9190611ef3565b60405180910390f35b61035b610a00565b6040516103689190612044565b60405180910390f35b61038b60048036038101906103869190612283565b610a06565b6040516103989190611e48565b60405180910390f35b6103bb60048036038101906103b69190611d7b565b610a9a565b005b6103d760048036038101906103d29190611d7b565b610b20565b6040516103e49190611e48565b60405180910390f35b61040760048036038101906104029190612364565b610b40565b005b610411610c06565b6000600960008373ffffffffffffffffffffffffffffffffffffffff1673ffffffffffffffffffffffffffffffffffffffff16815260200190815260200160002060006101000a81548160ff02191690831515021790555050565b6000634906490660e01b7bffffffffffffffffffffffffffffffffffffffffffffffffffffffff1916827bffffffffffffffffffffffffffffffffffffffffffffffffffffffff191614806104c657506104c582610c8d565b5b9050919050565b6060600080546104dc906123ef565b80601f0160208091040260200160405190810160405280929190818152602001828054610508906123ef565b80156105555780601f1061052a57610100808354040283529160200191610555565b820191906000526020600020905b81548152906001019060200180831161053857829003601f168201915b5050505050905090565b600061056a82610d6f565b5061057482610df7565b9050919050565b61058d8282610588610e34565b610e3c565b5050565b600073ffffffffffffffffffffffffffffffffffffffff168273ffffffffffffffffffffffffffffffffffffffff16036106035760006040517f64a0ae920000000000000000000000000000000000000000000000000000000081526004016105fa9190611f87565b60405180910390fd5b60006106178383610612610e34565b610e4e565b90508373ffffffffffffffffffffffffffffffffffffffff168173ffffffffffffffffffffffffffffffffffffffff161461068d578382826040517f64283d7b00000000000000000000000000000000000000000000000000000000815260040161068493929190612420565b60405180910390fd5b50505050565b6106ae838383604051806020016040528060008152506108c8565b505050565b60006106be82610d6f565b9050919050565b60008073ffffffffffffffffffffffffffffffffffffffff168273ffffffffffffffffffffffffffffffffffffffff16036107385760006040517f89c62b6400000000000000000000000000000000000000000000000000000000815260040161072f9190611f87565b60405180910390fd5b600360008373ffffffffffffffffffffffffffffffffffffffff1673ffffffffffffffffffffffffffffffffffffffff168152602001908152602001600020549050919050565b610787610c06565b6107916000610ee0565b565b61079b610c06565b6001600960008373ffffffffffffffffffffffffffffffffffffffff1673ffffffffffffffffffffffffffffffffffffffff16815260200190815260200160002060006101000a81548160ff02191690831515021790555050565b6000600760009054906101000a900473ffffffffffffffffffffffffffffffffffffffff16905090565b60606001805461082f906123ef565b80601f016020809104026020016040519081016040528092919081815260200182805461085b906123ef565b80156108a85780601f1061087d576101008083540402835291602001916108a8565b820191906000526020600020905b81548152906001019060200180831161088b57829003601f168201915b5050505050905090565b6108c46108bd610e34565b8383610fa6565b5050565b6108d3848484610591565b6108e76108de610e34565b85858585611115565b50505050565b60606108f882610d6f565b506000600660008481526020019081526020016000208054610919906123ef565b80601f0160208091040260200160405190810160405280929190818152602001828054610945906123ef565b80156109925780601f1061096757610100808354040283529160200191610992565b820191906000526020600020905b81548152906001019060200180831161097557829003601f168201915b5050505050905060006109a36112c6565b905060008151036109b85781925050506109fb565b6000825111156109ed5780826040516020016109d5929190612493565b604051602081830303815290604052925050506109fb565b6109f6846112dd565b925050505b919050565b60085481565b6000600560008473ffffffffffffffffffffffffffffffffffffffff1673ffffffffffffffffffffffffffffffffffffffff16815260200190815260200160002060008373ffffffffffffffffffffffffffffffffffffffff1673ffffffffffffffffffffffffffffffffffffffff16815260200190815260200160002060009054906101000a900460ff16905092915050565b610aa2610c06565b600073ffffffffffffffffffffffffffffffffffffffff168173ffffffffffffffffffffffffffffffffffffffff1603610b145760006040517f1e4fbdf7000000000000000000000000000000000000000000000000000000008152600401610b0b9190611f87565b60405180910390fd5b610b1d81610ee0565b50565b60096020528060005260406000206000915054906101000a900460ff1681565b600960003373ffffffffffffffffffffffffffffffffffffffff1673ffffffffffffffffffffffffffffffffffffffff16815260200190815260200160002060009054906101000a900460ff16610bcc576040517f08c379a0000000000000000000000000000000000000000000000000000000008152600401610bc390612503565b60405180910390fd5b60006008549050610bdd8382611346565b610be78183611364565b600160086000828254610bfa9190612552565b92505081905550505050565b610c0e610e34565b73ffffffffffffffffffffffffffffffffffffffff16610c2c6107f6565b73ffffffffffffffffffffffffffffffffffffffff1614610c8b57610c4f610e34565b6040517f118cdaa7000000000000000000000000000000000000000000000000000000008152600401610c829190611f87565b60405180910390fd5b565b60007f80ac58cd000000000000000000000000000000000000000000000000000000007bffffffffffffffffffffffffffffffffffffffffffffffffffffffff1916827bffffffffffffffffffffffffffffffffffffffffffffffffffffffff19161480610d5857507f5b5e139f000000000000000000000000000000000000000000000000000000007bffffffffffffffffffffffffffffffffffffffffffffffffffffffff1916827bffffffffffffffffffffffffffffffffffffffffffffffffffffffff1916145b80610d685750610d67826113c0565b5b9050919050565b600080610d7b8361142a565b9050600073ffffffffffffffffffffffffffffffffffffffff168173ffffffffffffffffffffffffffffffffffffffff1603610dee57826040517f7e273289000000000000000000000000000000000000000000000000000000008152600401610de59190612044565b60405180910390fd5b80915050919050565b60006004600083815260200190815260200160002060009054906101000a900473ffffffffffffffffffffffffffffffffffffffff169050919050565b600033905090565b610e498383836001611467565b505050565b600080610e5a8461142a565b9050600073ffffffffffffffffffffffffffffffffffffffff168173ffffffffffffffffffffffffffffffffffffffff1614610ecb576040517f08c379a0000000000000000000000000000000000000000000000000000000008152600401610ec2906125f8565b60405180910390fd5b610ed685858561162c565b9150509392505050565b6000600760009054906101000a900473ffffffffffffffffffffffffffffffffffffffff16905081600760006101000a81548173ffffffffffffffffffffffffffffffffffffffff021916908373ffffffffffffffffffffffffffffffffffffffff1602179055508173ffffffffffffffffffffffffffffffffffffffff168173ffffffffffffffffffffffffffffffffffffffff167f8be0079c531659141344cd1fd0a4f28419497f9722a3daafe3b4186f6b6457e060405160405180910390a35050565b600073ffffffffffffffffffffffffffffffffffffffff168273ffffffffffffffffffffffffffffffffffffffff160361101757816040517f5b08ba1800000000000000000000000000000000000000000000000000000000815260040161100e9190611f87565b60405180910390fd5b80600560008573ffffffffffffffffffffffffffffffffffffffff1673ffffffffffffffffffffffffffffffffffffffff16815260200190815260200160002060008473ffffffffffffffffffffffffffffffffffffffff1673ffffffffffffffffffffffffffffffffffffffff16815260200190815260200160002060006101000a81548160ff0219169083151502179055508173ffffffffffffffffffffffffffffffffffffffff168373ffffffffffffffffffffffffffffffffffffffff167f17307eab39ab6107e8899845ad3d59bd9653f200f220920489ca2b5937696c31836040516111089190611e48565b60405180910390a3505050565b60008373ffffffffffffffffffffffffffffffffffffffff163b11156112bf578273ffffffffffffffffffffffffffffffffffffffff1663150b7a02868685856040518563ffffffff1660e01b8152600401611174949392919061266d565b6020604051808303816000875af19250505080156111b057506040513d601f19601f820116820180604052508101906111ad91906126ce565b60015b611234573d80600081146111e0576040519150601f19603f3d011682016040523d82523d6000602084013e6111e5565b606091505b50600081510361122c57836040517f64a0ae920000000000000000000000000000000000000000000000000000000081526004016112239190611f87565b60405180910390fd5b805181602001fd5b63150b7a0260e01b7bffffffffffffffffffffffffffffffffffffffffffffffffffffffff1916817bffffffffffffffffffffffffffffffffffffffffffffffffffffffff1916146112bd57836040517f64a0ae920000000000000000000000000000000000000000000000000000000081526004016112b49190611f87565b60405180910390fd5b505b5050505050565b606060405180602001604052806000815250905090565b60606112e882610d6f565b5060006112f36112c6565b90506000815111611313576040518060200160405280600081525061133e565b8061131d84611846565b60405160200161132e929190612493565b6040516020818303038152906040525b915050919050565b611360828260405180602001604052806000815250611914565b5050565b8060066000848152602001908152602001600020908161138491906128a7565b507ff8e1a15aba9398e019f0b49df1a4fde98ee17ae345cb5f6b5e2c27f5033e8ce7826040516113b49190612044565b60405180910390a15050565b60007f01ffc9a7000000000000000000000000000000000000000000000000000000007bffffffffffffffffffffffffffffffffffffffffffffffffffffffff1916827bffffffffffffffffffffffffffffffffffffffffffffffffffffffff1916149050919050565b60006002600083815260200190815260200160002060009054906101000a900473ffffffffffffffffffffffffffffffffffffffff169050919050565b80806114a05750600073ffffffffffffffffffffffffffffffffffffffff168273ffffffffffffffffffffffffffffffffffffffff1614155b156115d45760006114b084610d6f565b9050600073ffffffffffffffffffffffffffffffffffffffff168373ffffffffffffffffffffffffffffffffffffffff161415801561151b57508273ffffffffffffffffffffffffffffffffffffffff168173ffffffffffffffffffffffffffffffffffffffff1614155b801561152e575061152c8184610a06565b155b1561157057826040517fa9fbf51f0000000000000000000000000000000000000000000000000000000081526004016115679190611f87565b60405180910390fd5b81156115d257838573ffffffffffffffffffffffffffffffffffffffff168273ffffffffffffffffffffffffffffffffffffffff167f8c5be1e5ebec7d5bd14f71427d1e84f3dd0314c0f7b2291e5b200ac8c7c3b92560405160405180910390a45b505b836004600085815260200190815260200160002060006101000a81548173ffffffffffffffffffffffffffffffffffffffff021916908373ffffffffffffffffffffffffffffffffffffffff16021790555050505050565b6000806116388461142a565b9050600073ffffffffffffffffffffffffffffffffffffffff168373ffffffffffffffffffffffffffffffffffffffff161461167a57611679818486611938565b5b600073ffffffffffffffffffffffffffffffffffffffff168173ffffffffffffffffffffffffffffffffffffffff161461170b576116bc600085600080611467565b6001600360008373ffffffffffffffffffffffffffffffffffffffff1673ffffffffffffffffffffffffffffffffffffffff168152602001908152602001600020600082825403925050819055505b600073ffffffffffffffffffffffffffffffffffffffff168573ffffffffffffffffffffffffffffffffffffffff161461178e576001600360008773ffffffffffffffffffffffffffffffffffffffff1673ffffffffffffffffffffffffffffffffffffffff168152602001908152602001600020600082825401925050819055505b846002600086815260200190815260200160002060006101000a81548173ffffffffffffffffffffffffffffffffffffffff021916908373ffffffffffffffffffffffffffffffffffffffff160217905550838573ffffffffffffffffffffffffffffffffffffffff168273ffffffffffffffffffffffffffffffffffffffff167fddf252ad1be2c89b69c2b068fc378daa952ba7f163c4a11628f55a4df523b3ef60405160405180910390a4809150509392505050565b606060006001611855846119fc565b01905060008167ffffffffffffffff811115611874576118736120d5565b5b6040519080825280601f01601f1916602001820160405280156118a65781602001600182028036833780820191505090505b509050600082602001820190505b600115611909578080600190039150507f3031323334353637383961626364656600000000000000000000000000000000600a86061a8153600a85816118fd576118fc612979565b5b049450600085036118b4575b819350505050919050565b61191e8383611b4f565b611933611929610e34565b6000858585611115565b505050565b611943838383611c48565b6119f757600073ffffffffffffffffffffffffffffffffffffffff168373ffffffffffffffffffffffffffffffffffffffff16036119b857806040517f7e2732890000000000000000000000000000000000000000000000000000000081526004016119af9190612044565b60405180910390fd5b81816040517f177e802f0000000000000000000000000000000000000000000000000000000081526004016119ee9291906129a8565b60405180910390fd5b505050565b600080600090507a184f03e93ff9f4daa797ed6e38ed64bf6a1f0100000000000000008310611a5a577a184f03e93ff9f4daa797ed6e38ed64bf6a1f0100000000000000008381611a5057611a4f612979565b5b0492506040810190505b6d04ee2d6d415b85acef81000000008310611a97576d04ee2d6d415b85acef81000000008381611a8d57611a8c612979565b5b0492506020810190505b662386f26fc100008310611ac657662386f26fc100008381611abc57611abb612979565b5b0492506010810190505b6305f5e1008310611aef576305f5e1008381611ae557611ae4612979565b5b0492506008810190505b6127108310611b14576127108381611b0a57611b09612979565b5b0492506004810190505b60648310611b375760648381611b2d57611b2c612979565b5b0492506002810190505b600a8310611b46576001810190505b80915050919050565b600073ffffffffffffffffffffffffffffffffffffffff168273ffffffffffffffffffffffffffffffffffffffff1603611bc15760006040517f64a0ae92000000000000000000000000000000000000000000000000000000008152600401611bb89190611f87565b60405180910390fd5b6000611bcf83836000610e4e565b9050600073ffffffffffffffffffffffffffffffffffffffff168173ffffffffffffffffffffffffffffffffffffffff1614611c435760006040517f73c6ac6e000000000000000000000000000000000000000000000000000000008152600401611c3a9190611f87565b60405180910390fd5b505050565b60008073ffffffffffffffffffffffffffffffffffffffff168373ffffffffffffffffffffffffffffffffffffffff1614158015611d0057508273ffffffffffffffffffffffffffffffffffffffff168473ffffffffffffffffffffffffffffffffffffffff161480611cc15750611cc08484610a06565b5b80611cff57508273ffffffffffffffffffffffffffffffffffffffff16611ce783610df7565b73ffffffffffffffffffffffffffffffffffffffff16145b5b90509392505050565b6000604051905090565b600080fd5b600080fd5b600073ffffffffffffffffffffffffffffffffffffffff82169050919050565b6000611d4882611d1d565b9050919050565b611d5881611d3d565b8114611d6357600080fd5b50565b600081359050611d7581611d4f565b92915050565b600060208284031215611d9157611d90611d13565b5b6000611d9f84828501611d66565b91505092915050565b60007fffffffff0000000000000000000000000000000000000000000000000000000082169050919050565b611ddd81611da8565b8114611de857600080fd5b50565b600081359050611dfa81611dd4565b92915050565b600060208284031215611e1657611e15611d13565b5b6000611e2484828501611deb565b91505092915050565b60008115159050919050565b611e4281611e2d565b82525050565b6000602082019050611e5d6000830184611e39565b92915050565b600081519050919050565b600082825260208201905092915050565b60005b83811015611e9d578082015181840152602081019050611e82565b60008484015250505050565b6000601f19601f8301169050919050565b6000611ec582611e63565b611ecf8185611e6e565b9350611edf818560208601611e7f565b611ee881611ea9565b840191505092915050565b60006020820190508181036000830152611f0d8184611eba565b905092915050565b6000819050919050565b611f2881611f15565b8114611f3357600080fd5b50565b600081359050611f4581611f1f565b92915050565b600060208284031215611f6157611f60611d13565b5b6000611f6f84828501611f36565b91505092915050565b611f8181611d3d565b82525050565b6000602082019050611f9c6000830184611f78565b92915050565b60008060408385031215611fb957611fb8611d13565b5b6000611fc785828601611d66565b9250506020611fd885828601611f36565b9150509250929050565b600080600060608486031215611ffb57611ffa611d13565b5b600061200986828701611d66565b935050602061201a86828701611d66565b925050604061202b86828701611f36565b9150509250925092565b61203e81611f15565b82525050565b60006020820190506120596000830184612035565b92915050565b61206881611e2d565b811461207357600080fd5b50565b6000813590506120858161205f565b92915050565b600080604083850312156120a2576120a1611d13565b5b60006120b085828601611d66565b92505060206120c185828601612076565b9150509250929050565b600080fd5b600080fd5b7f4e487b7100000000000000000000000000000000000000000000000000000000600052604160045260246000fd5b61210d82611ea9565b810181811067ffffffffffffffff8211171561212c5761212b6120d5565b5b80604052505050565b600061213f611d09565b905061214b8282612104565b919050565b600067ffffffffffffffff82111561216b5761216a6120d5565b5b61217482611ea9565b9050602081019050919050565b82818337600083830152505050565b60006121a361219e84612150565b612135565b9050828152602081018484840111156121bf576121be6120d0565b5b6121ca848285612181565b509392505050565b600082601f8301126121e7576121e66120cb565b5b81356121f7848260208601612190565b91505092915050565b6000806000806080858703121561221a57612219611d13565b5b600061222887828801611d66565b945050602061223987828801611d66565b935050604061224a87828801611f36565b925050606085013567ffffffffffffffff81111561226b5761226a611d18565b5b612277878288016121d2565b91505092959194509250565b6000806040838503121561229a57612299611d13565b5b60006122a885828601611d66565b92505060206122b985828601611d66565b9150509250929050565b600067ffffffffffffffff8211156122de576122dd6120d5565b5b6122e782611ea9565b9050602081019050919050565b6000612307612302846122c3565b612135565b905082815260208101848484011115612323576123226120d0565b5b61232e848285612181565b509392505050565b600082601f83011261234b5761234a6120cb565b5b813561235b8482602086016122f4565b91505092915050565b6000806040838503121561237b5761237a611d13565b5b600061238985828601611d66565b925050602083013567ffffffffffffffff8111156123aa576123a9611d18565b5b6123b685828601612336565b9150509250929050565b7f4e487b7100000000000000000000000000000000000000000000000000000000600052602260045260246000fd5b6000600282049050600182168061240757607f821691505b60208210810361241a576124196123c0565b5b50919050565b60006060820190506124356000830186611f78565b6124426020830185612035565b61244f6040830184611f78565b949350505050565b600081905092915050565b600061246d82611e63565b6124778185612457565b9350612487818560208601611e7f565b80840191505092915050565b600061249f8285612462565b91506124ab8284612462565b91508190509392505050565b7f4e6f7420616e20617070726f7665642069737375657200000000000000000000600082015250565b60006124ed601683611e6e565b91506124f8826124b7565b602082019050919050565b6000602082019050818103600083015261251c816124e0565b9050919050565b7f4e487b7100000000000000000000000000000000000000000000000000000000600052601160045260246000fd5b600061255d82611f15565b915061256883611f15565b92508282019050808211156125805761257f612523565b5b92915050565b7f4469706c6f6d61732061726520736f756c626f756e6420286e6f6e2d7472616e60008201527f7366657261626c65290000000000000000000000000000000000000000000000602082015250565b60006125e2602983611e6e565b91506125ed82612586565b604082019050919050565b60006020820190508181036000830152612611816125d5565b9050919050565b600081519050919050565b600082825260208201905092915050565b600061263f82612618565b6126498185612623565b9350612659818560208601611e7f565b61266281611ea9565b840191505092915050565b60006080820190506126826000830187611f78565b61268f6020830186611f78565b61269c6040830185612035565b81810360608301526126ae8184612634565b905095945050505050565b6000815190506126c881611dd4565b92915050565b6000602082840312156126e4576126e3611d13565b5b60006126f2848285016126b9565b91505092915050565b60008190508160005260206000209050919050565b60006020601f8301049050919050565b600082821b905092915050565b60006008830261275d7fffffffffffffffffffffffffffffffffffffffffffffffffffffffffffffffff82612720565b6127678683612720565b95508019841693508086168417925050509392505050565b6000819050919050565b60006127a461279f61279a84611f15565b61277f565b611f15565b9050919050565b6000819050919050565b6127be83612789565b6127d26127ca826127ab565b84845461272d565b825550505050565b600090565b6127e76127da565b6127f28184846127b5565b505050565b5b818110156128165761280b6000826127df565b6001810190506127f8565b5050565b601f82111561285b5761282c816126fb565b61283584612710565b81016020851015612844578190505b61285861285085612710565b8301826127f7565b50505b505050565b600082821c905092915050565b600061287e60001984600802612860565b1980831691505092915050565b6000612897838361286d565b9150826002028217905092915050565b6128b082611e63565b67ffffffffffffffff8111156128c9576128c86120d5565b5b6128d382546123ef565b6128de82828561281a565b600060209050601f83116001811461291157600084156128ff578287015190505b612909858261288b565b865550612971565b601f19841661291f866126fb565b60005b8281101561294757848901518255600182019150602085019450602081019050612922565b868310156129645784890151612960601f89168261286d565b8355505b6001600288020188555050505b505050505050565b7f4e487b7100000000000000000000000000000000000000000000000000000000600052601260045260246000fd5b60006040820190506129bd6000830185611f78565b6129ca6020830184612035565b939250505056fea2646970667358221220ce43eb1bc2e22cbaa165a12dc31a0904c6f09ecffdccf39f02f7aed80a812bf464736f6c63430008140033",
  "linkReferences": {},
  "deployedLinkReferences": {}
}